:020000040800F2
:10000000C01C0120F1010008CB390008172C0008A2
:10001000C93900085D0E0008A14100080000000079
:10002000000000000000000000000000CF390008C0
:100030007B0F000800000000CD390008D13900080E
:100040000B0200080B0200080B0200080B0200085C
:100050000B0200080B0200080B0200080B0200084C
:100060000B0200080B0200080B020008CD0E00086E
:100070000B0200080B0200080B0200080B0200082C
:100080000B0200080B0200080B0200080B0200081C
:100090000B0200080B0200080B0200080B0200080C
:1000A0000B0200080B0200080B0200080B020008FC
:1000B0000B0200080B0200080B0200080B020008EC
:1000C0000B0200080B0200080B0200080B020008DC
:1000D0000B020008CD4000080B0200080B020008CC
:1000E0007D0F00080B0200080B0200080B0200083D
:1000F0000B0200080B0200080B0200080B020008AC
:100100000B0200080B0200080B0200080B0200089B
:100110000B0200080B0200080B0200080B0200088B
:100120000B0200080B0200080B0200080B0200087B
:100130000B0200080B0200080B0200080B0200086B
:100140000B0200080B0200080B0200080B0200085B
:100150000B0200080B0200080B0200080B0200084B
:100160000B0200080B0200080B0200080B0200083B
:100170000B0200080B0200080B0200080B0200082B
:100180000B0200080B0200080B0200080B0200081B
:100190000B020008000000000B0200080B02000820
:1001A0000B0200080B0200080B0200080B020008FB
:1001B0000B0200080B0200080B0200080B020008EB
:1001C0000B0200080B0200080B0200080B020008DB
:1001D0000B0200080B020008DFF810D000F01CFC36
:1001E00000480047DD720008AFF30080C01C01200A
:1001F0000648804706480047FEE7FEE7FEE7FEE7C1
:10020000FEE7FEE7FEE7FEE7FEE7FEE7593A0008F5
:10021000D90100082DE9F05F0546002092469B4673
:1002200088460646814640241BE02846414647460C
:10023000224600F0BAFA53465A46C01A914110D3EA
:1002400011461846224600F0A1FA2D1A67EB010864
:100250004F4622460120002100F098FA17EB0009D2
:100260004E41201EA4F10104DFDC484631462A46F7
:100270004346BDE8F09F40EA01039B0703D009E035
:1002800008C9121F08C0042AFAD203E011F8013B82
:1002900000F8013B521EF9D27047D2B201E000F8DB
:1002A000012B491EFBD270470022F6E710B513461A
:1002B0000A4604461946FFF7F0FF204610BD421ECD
:1002C00012F8013F002BFBD111F8013B02F8013B72
:1002D000002BF9D1704730B505462A460B4612F877
:1002E000010B13F8014B08B1A042F8D01CB1002853
:1002F00002D06D1CF1E7284630BD421C10F8011BEE
:100300000029FBD1801A704730B50446002003460F
:1003100000E05B1C934203D2E05CCD5C401BF8D054
:1003200030BD2DE9FE4F804681EA0300C00F0C4628
:10033000009021F0004123F00045B8EB0200A941F4
:1003400005D24046214690461C460B46024623F005
:100350000040104347D0270DC7F30A00C3F30A51EA
:100360000290401A019040286BDAC3F3130040F466
:10037000801B0098924620B10023D2EB030A63EB66
:100380000B0B01985946C0F14002504600F0FEF9AF
:1003900006460D4650465946019A00F016FA10EBF3
:1003A00008006141002487EA115284EAE7731A4386
:1003B00040D0009A62B3019A012A4FEA075215DC35
:1003C000001B61EB02014FF0004202EA0752CDE947
:1003D0000042001C41F5801132462B4600F04DFAD8
:1003E00003B0BDE8F08F40462146F9E7001B61EB02
:1003F0000201001C41F5801300185B412018A2F592
:10040000001747EB030140EAD570B6196D4111E0C2
:100410006D084FEA360645EAC0754FEA0752001BE1
:1004200061EB0201001C41F5801149084FEA3000E0
:100430000019514132462B4603B0BDE8F04F00F0A1
:100440000DBA0098012240000023D0EB020263EBBA
:10045000E073009821464FEAE074B8EB000061EBCE
:100460000401E9E783F000435BE781F0004158E7CE
:100470002DE9FE4F81EA030404F0004421F000411D
:1004800000944FF0000B23F0004350EA01045ED0CB
:1004900052EA03045BD0C3F30A54C1F30A552C4457
:1004A000A4F2F3340194A0FB0254C1F3130141F40C
:1004B0008011C3F3130343F4801301FB024400FBD8
:1004C000034E840A970A44EA815447EA8357A4FBFF
:1004D000076802958D0A05FB07854FEA932C04FBFC
:1004E0000C542705029D4FEA065847EA1637B5EB2C
:1004F00008056EEB070C870E920E47EA811742EA59
:100500008312A7FB0201B6EB0B0164EB00042B0D79
:1005100043EA0C335E1844EB1C50DA465146E7FBC5
:100520000201C5F313044FEA0B3343EA14534FEAB5
:100530000432019C43EA0603A4F10C040294009CDB
:10054000CDE900B400F099F903B0BDE8F08F0020C8
:100550000146F9E72DE9F04D81EA030404F0004B70
:1005600021F0004514464FF0000A23F0004150EA04
:10057000050220D054EA01021DD0C5F30A570246F5
:10058000C5F31303C1F31300C1F30A5640F48015F9
:1005900043F48013A7EB0608101BD64608F2FD387B
:1005A00073EB050002D308F1010801E092185B41EA
:1005B000B8F1000F03DA00200146BDE8F08D0020FD
:1005C0004FF48011064684460EE0171B73EB0507B7
:1005D00005D3121B63EB050306434CEA010C4908E3
:1005E0004FEA300092185B4150EA0107EDD152EA20
:1005F000030012D082EA040083EA0501084305D013
:10060000101BAB4106D20122002306E000224FF06E
:10061000004302E06FF0010253101AEB06004CEBAE
:10062000085110EB0A0041EB0B01BDE8F04D00F062
:1006300015B90EB5C10F80EAE0700844CA07002161
:1006400040F233438DE80E000A460B4600F015F9E0
:1006500003B000BD0EB540F2334102910021CDE957
:1006600000110A460B4600F008F903B000BDC1F3C3
:100670000A5210B5C1F3130140F2FF3341F4801167
:100680009A4201DA002010BD40F233439A42A2F2AE
:10069000334203DC524200F088F810BD904010BD98
:1006A00000F0004230F000400AD0C10D01F5607149
:1006B000C0F3160042EA0151C208400711437047D7
:1006C000002001467047000030B5041E71F100049F
:1006D00004DB4FF00044404264EB0101141E73F14F
:1006E000000405DB1C464FF00043524263EB040359
:1006F0008B4208BF824230BD30B5041E71F1000448
:1007000004DB4FF00044404264EB0101141E73F11E
:10071000000405DB1C464FF00043524263EB040328
:10072000994208BF904230BD01F0004330B421F03F
:10073000004150EA010206D00A0DA2F56072C1F331
:100740001301002A02DC30BC00207047440F44EA49
:10075000C104C100E01830BC00EBC25000F047B843
:1007600030B50B46014600202022012409E021FA81
:1007700002F59D4205D303FA02F5491B04FA02F57E
:100780002844151EA2F10102F1DC30BD202A04DB51
:10079000203A00FA02F1002070479140C2F1200394
:1007A00020FA03F3194390407047202A04DB203AD3
:1007B00021FA02F00021704721FA02F3D040C2F181
:1007C00020029140084319467047202A06DBCB17C8
:1007D000203A41FA02F043EAE07306E041FA02F3FC
:1007E000D040C2F1200291400843194670470029C9
:1007F000A8BF7047401C490008BF20F001007047A7
:1008000010B4B0FA80FC00FA0CF050EA010404BF06
:1008100010BC704749B1CCF1200421FA04F411FA5C
:100820000CF118BF012121430843A3EB0C01CB1DA0
:100830004FEA00614FEA102042BF002010BC704711
:1008400000EBC35010440029A4BF10BC7047401CEB
:10085000490008BF20F0010010BC704710B5141EFD
:1008600073F1000408DA401C41F1000192185B4169
:100870001A4301D120F0010010BD2DE9F04D924640
:100880009B4611B1B1FA81F202E0B0FA80F2203257
:100890009046FFF77BFF04460F4640EA0A0041EA14
:1008A0000B0153465A46084313D0114653EA010040
:1008B00019D0C8F140025046FFF777FF05460E46B3
:1008C000504659464246FFF761FF084305D00120D4
:1008D00004E020463946BDE8F08D0020054346EA95
:1008E000E0762C4337430A986305E40AA0EB08003E
:1008F0000022FD0A44EA47540A3002D5002001468E
:10090000E9E7010510196941DDE908450019694168
:10091000BDE8F04DA2E770B521F0004303430CD0D1
:10092000C1F30A550024D5EB040564EB0403D61784
:10093000AD1AB34102DB0020014670BD201841EB27
:10094000025170BD2DE9F04D00231A461B1A8A4151
:1009500003DB00200146BDE8F08DC1F30A52C1F36C
:10096000130141F480154FF0000BD10702D100189C
:100970006D41521E0027044640F2FF11384601EB3C
:10098000620A3E468046024600204FF48011FFF77F
:100990000CFFC2197141BB1846EB0100B4EB030C0C
:1009A00075EB000C04D3E41A65EB000517460E4600
:1009B000241908F101006D4180463428E3DDF9195E
:1009C00046EB0600091BA84103D24FF0FF32134645
:1009D00001E0002213461BEB070046EB0A51BDE87D
:1009E000F04DFFF73BBFC1F30A52C1F3130140F2D0
:1009F000FF3341F480119A4202DA00200146704729
:100A000040F233439A42A2F2334202DC5242FFF7F1
:100A1000CCBEFFF7BBBE0000064C074D06E0E06809
:100A200040F0010394E8070098471034AC42F6D335
:100A3000FFF7D6FB98870008B887000870B58C18B8
:100A400010F8015B15F0070301D110F8013B2A11E2
:100A500006D110F8012B03E010F8016B01F8016BCF
:100A60005B1EF9D12B0705D40023521E0DD401F8CB
:100A7000013BFAE710F8013BCB1A921C03E013F894
:100A8000015B01F8015B521EF9D5A142D8D30020C9
:100A900070BD00004FF480610148FFF705BC000005
:100AA000A809002010B5FFF7F5FF4FF4FA742246AD
:100AB00010A111A000F05CF918B109E012A003F038
:100AC00071FBFA2216A117A000F052F90028F5D008
:100AD000FA2208A118A000F04BF918B110BD1AA015
:100AE00003F060FB22460EA11CA000F041F9002893
:100AF000F5D010BD3100000041542B51474E5353E7
:100B0000414750533F0D0A00D2D1BEADBFAAC6F433
:100B100041475053B9A6C4DCA3A10D0A0000000050
:100B20004F4B000041542B51474E535341475053B4
:100B30003D310D0A0000000041542B51474E5353E4
:100B4000433F0D0A00000000475053B3F5CABCBB39
:100B5000AFCDEAB1CFA3A10D0A00000041542B5143
:100B6000474E5353433D310D0A00000070B537A086
:100B700003F018FB3AA003F015FB002210214FF000
:100B8000904000F001FD4FF4167000F0E9FB38A032
:100B900003F008FB00F0D4F80025394C08E0207879
:100BA000401CC0B22070032802D32570FFF7DEFF7F
:100BB000C82234A134A000F0DBF80028EFD002E016
:100BC000322000F0CDFB96222EA131A000F0D0F80B
:100BD0000028F5D032A003F0E5FA322000F0C0FB87
:100BE000C82228A133A000F0C3F80028F5D038A00F
:100BF00003F0D8FA322000F0B3FB40F6B83608E034
:100C00002078401CC0B22070082802D32570FFF75E
:100C1000ADFF324632A133A000F0AAF80028EFD091
:100C20003BA003F0BFFA01254FF4FA6600E02570FF
:100C300032463BA13C4800F09BF80028F7D03BA08F
:100C400003F0B0FA3D48057070BD000042433230F9
:100C5000B3F5CABCBBAFD6D02E2E2E0D0A000000B5
:100C600042433230BFAABBFA2E2E2E0D0A000000DE
:100C700042433230BFAABBFACDEAB1CF0D0A000021
:100C8000000000204F4B000041540D0A00000000FE
:100C900041542B4350534D533D300D0A000000008A
:100CA00041542B4350534D53204F766572210D0A0A
:100CB0000000000041542B514D544346473D2276DD
:100CC000657273696F6E222C302C340D0A0000009F
:100CD00056657273696F6E204F564552210D0A009A
:100CE000302C300041542B514D544F50454E3D3027
:100CF0002C226D717474732E6865636C6F756473E8
:100D00002E636F6D222C313838330D0A000000003D
:100D10004D515454204F564552210D0A00000000F9
:100D2000302C302C3000000098860008434F4E4E87
:100D3000454354204F564552210D0A00A100002082
:100D400010B5002202214FF0904000F01DFC282039
:100D500000F006FBBDE8104001A003F023BA00003C
:100D60005265736574204F766572210D0A0000008C
:100D700070B515460E460446FFF7BFFA82B24FF62D
:100D8000FF732146194801F0E7FE214618A003F041
:100D900009FA284600F0E4FA1A4C002520780128C8
:100DA00003D019A003F0FEF91DE031461948FFF702
:100DB00092FA40B1174918A003F0F4F92570FFF733
:100DC00069FE012070BD19A11248FFF784FA11498C
:100DD00030B118A003F0E6F92570FFF75BFE03E0E1
:100DE00019A003F0DFF92570002070BD081700205E
:100DF0005B424332305F53656E64436D645D202512
:100E0000730D0A00A00000200D0A2B2B2B6E756CB1
:100E10006C0D0A00A8090020434D442D3E25730D9A
:100E20000A2B2B2B5945530D0A0000004552524FF7
:100E300052000000434D442D3E25730D0A2B2B2BF1
:100E40004552524F520D0A00434D442D3E25730D1D
:100E50000A2B2B2B4E4F0D0A00000000FEE700006E
:100E6000144810B5016821F00101016004F043FD50
:100E700011490968114BC1F30221114A01240429C7
:100E80000BD010490C600C68002CFCD10D490839BE
:100E90000B60096891420AD0FEE70B498C608C68B0
:100EA000002CFCD10B600968914200D0FEE704F0F1
:100EB00079FD10BD002000E0002004E0C2A507F489
:100EC000CDB5E8B5084C025800300240014800F0AA
:100ED00044B90000181600200D4902688A4201D268
:100EE0000C4901E00B492031D2B21423083AB2FB7D
:100EF000F3F2436C02F01F0223F0030319448164F0
:100F000004498031C16401219140016570470000AE
:100F100008040240000802400179074A02EB8102FE
:100F20004265054A4432491E826501F01F020121D3
:100F30009140C16570470000FC08024030B5D0E91F
:100F400013456560446D14B1D0E91645656090F8AD
:100F5000444004F01F050124AC40056C6C6004683B
:100F600063608368102B036803D099600068C260D7
:100F700030BD9A600068C16030BD70474FF40050CA
:100F800000F012BA72B6FEE7F0B5044600201E2348
:100F9000012601E05B1E05D303F01F0706FA07F5E3
:100FA0000D42F7D072B1082A0AD0102A05D0182AAB
:100FB00001D1072B06D30120F0BD082BFBD201E0A5
:100FC000102BF8D22368596121688B6823F018032D
:100FD00013438B60F0BD000010B5040010D0607F9B
:100FE00020B900202077204600F030F802206077FA
:100FF000207938B1D4E902122046FFF7C5FF48B185
:10100000012010BD2168104848612068816821F0E6
:10101000180181606079A0B12069216808612068A9
:101020008168626921F060011143816020688168F4
:10103000A26921F0800111438160012060770020C6
:1010400010BD4FF0FF30E8E7B71DC10408B50068D8
:101050000649884208D10648816C41F48051816478
:10106000806C00F48050009008BD00000030024009
:101070000010024010B590F8253000210122022B0B
:1010800003D00421C163012122E003681C6824F01D
:101090000E041C60836C1C6824F480741C6003685C
:1010A0001C6824F001041C6090F84430046C03F0C8
:1010B0001F0302FA03F36360D0E913345C60436DED
:1010C00033B11C6824F480741C60D0E916345C6071
:1010D00080F82520002280F82420084610BD70B535
:1010E00090F82520002401212346022A07D004225B
:1010F000C26380F8251080F82430012429E00268BA
:10110000156825F00E0515600268156825F00105C3
:101110001560826C156825F48075156090F8442080
:10112000056C02F01F0201FA02F26A60D0E9132591
:101130005560426D32B1156825F480751560D0E9AF
:101140001625556080F8251080F82430816B01B198
:101150008847204670BDC06B7047F0B4016C0C68C6
:1011600001680D6890F8442002F01F06042202FA7C
:1011700006F3234211D06B070FD50B689B0603D4EF
:101180000B6823F004030B6090F8441001F01F017A
:101190008A40016C4A60016B1DE0022303FA06F7E6
:1011A00027424FF0000C4FF0010218D0AF0716D5C0
:1011B0000C68A40605D40C6824F00A040C6080F8BE
:1011C000252090F8441001F01F018B40016C4B600A
:1011D00080F824C0C16A00291AD0F0BC084708234F
:1011E000B340234214D02B0712D50B6823F00E0313
:1011F0000B6090F84410036C01F01F0102FA01F13A
:101200005960C26380F8252080F824C0416BE2E772
:10121000F0BC704770B504000CD02B4A2168142034
:10122000914209D2294A0A44B2FBF0F0800060647E
:1012300027480AE0012070BD234A52420A44B2FB0B
:10124000F0F080006064204808382064022084F8B0
:1012500025000A6847F6F0708243D4E90203184378
:10126000D4E904352B431843A3691843E3691843B1
:10127000236A1843104308602046FFF72DFEA0683C
:101280000025B0F5804F00D16560A16C2079086021
:10129000D4E9130141606068401E032808D8204645
:1012A000FFF73AFE606D0560D4E91601416002E087
:1012B0006565A565E565E563012084F8250084F88A
:1012C0002450002070BD000008040240F8FFFDBF5C
:1012D0000000024070B5044690F824000025012863
:1012E0000CD0012084F8240094F825600020012E01
:1012F00006D084F824000225284670BD022070BD67
:10130000022684F82560E0632068066826F001065E
:1013100006602046FFF712FE206B00282068016857
:1013200002D041F00E0106E021F0040101602068C6
:10133000016841F00A010160A06C0168C90303D58E
:10134000016841F480710160606D18B1016841F479
:10135000807101602068016841F001010160CBE704
:1013600070B5044600F016F90546601C02D004482A
:101370004068044400F00EF9401BA042FAD370BD4F
:10138000A400002010B54FF40054A04206D1012261
:101390000221034800F0F8F80248046010BD000084
:1013A0000008004814040140044910B50A680242CC
:1013B00002D00860FFF7E6FF10BD000014040140F2
:1013C0002DE9FC4FDFF8A0A1002301250AF1040B51
:1013D00003244FF00F0C0BF1040EBDE005FA03F6E9
:1013E00032406FD04F68012F05D0022F03D0112F4C
:1013F00001D0122F17D1D0F808905F0004FA07F837
:1014000029EA08090097D1F80C8008FA07F848EA99
:101410000908C0F808804768B7430E79C6F300167C
:101420009E403E434660C6684FEA430804FA08F708
:10143000BE4301978F6807FA08F73743C7604E68C5
:10144000022E01D0122E13D1DE0800EB8606009684
:10145000366A5F07FF0E0CFA07F926EA0906D1F88B
:10146000109009FA07F949EA0609009EC6F820908B
:101470000668019FBE430F7907F0030707FA08F7D4
:10148000374307604E68F60065D5384E376E47F033
:1014900001073766366E23F0030706F00106009653
:1014A000334E3E44B146B6689F074FEA17780CFAB0
:1014B00008F7BE43B0F1904F05D02E4FB84204D18B
:1014C000012717E047E0002714E02B4FB84201D175
:1014D00002270FE0294FB84201D103270AE0284F25
:1014E000B84201D1042705E0264FB84201D10527B3
:1014F00000E0062707FA08F73743C9F80870DAF85A
:1015000000605746D1F8048096435FEAC83800D59A
:1015100016433E60DBF800605F46D1F804809643D6
:101520005FEA883800D516433E60DEF800607746F3
:10153000D1F8048096435FEAC82800D516433E6080
:10154000094F0C373E68D1F8048096435FEA88283B
:1015500000D516433E605B1C0A6832FA03F67FF43E
:101560003DAFBDE8FC8F00000004014000100240C8
:10157000000001400004004800080048000C00483A
:1015800000100048001400480AB181617047816270
:10159000704700000148806870470000A4000020E8
:1015A00090F84120202A24D190F84020012A20D010
:1015B000012280F84020242280F84120026813682C
:1015C00023F0010313600268136823F4805313604F
:1015D000026813680B43136001680A6842F0010255
:1015E0000A60202180F84110002180F84010084650
:1015F00070470220704790F84120202A22D190F8AD
:101600004020012A1ED0012280F84020242280F8A8
:1016100041200268136823F0010313600268136815
:1016200023F4706343EA0121116001680A6842F003
:1016300001020A60202180F84110002180F840104A
:10164000084670470220704770B5040004D094F833
:101650004100002510B106E0012070BD84F8405023
:10166000204600F0ABF9242084F84100206801688E
:1016700021F0010101606068216820F0706008615C
:101680002068816821F400418160E0680128A06839
:1016900007D040F4044021688860E068022803D045
:1016A00006E040F40040F6E721684FF4006048602F
:1016B00020684168114A114341602068C16821F4E3
:1016C0000041C160D4E904010843A16940EA012056
:1016D0002168C860D4E907010843216808602068D0
:1016E000016841F0010101606564202084F8410037
:1016F000256384F84250002070BD00000080000285
:101700002DE9FF4F83B00446DDE9108790F84100D2
:10171000DDF848909A469346202874D15FEA080085
:1017200014D09FB194F8400001286CD0012084F8B7
:101730004000FFF72FFF0646012200901923D10336
:10174000204601F037FB002871D103E04FF4007010
:1017500060646CE0222084F84100402084F842005C
:1017600000256564C4F8248067856563CDE900962B
:1017700053465A462046049901F0A2FA10B184F863
:10178000405054E0618D3548FF274FF080784FF08E
:10179000007AFF2904D927853A464346009005E0A0
:1017A000618D2185009094F82820534620460499A5
:1017B00001F0EAFA4B46002204212046009601F08F
:1017C000F9FAA0BB2068406A616A0870606A401C30
:1017D0006062208D401E81B22185608D401E608533
:1017E000608DD8B1D1B94B460022802120460096A9
:1017F00001F0E0FAD8B9608DFF2805D927853A466F
:101800004346009506E026E0608D2085009594F81B
:10181000282053462046049901F0B6FA608D00282E
:10182000C8D132464946204601F0F0FA18B10120ED
:1018300007B0BDE8F08F21682020C86121684A68A0
:10184000074B1A404A6084F8410084F8425084F8FB
:1018500040500020ECE70220EAE70000002400806E
:1018600000E800FE2DE9FF4F83B00446DDE9108754
:1018700090F84100DDF848909A469346202871D1AF
:101880005FEA080014D09FB194F84000012869D0A5
:10189000012084F84000FFF77DFE064601220090FB
:1018A0001923D103204601F085FA00286ED103E008
:1018B0004FF40070606469E0212084F8410040200A
:1018C00084F8420000256564C4F824806785656358
:1018D000CDE9009653465A462046049901F022FA73
:1018E00010B184F8405051E0608DFF274FF08078B0
:1018F0004FF0007AFF2804D927853A4643460095E1
:1019000005E0608D2085009594F8282053462046F8
:10191000049901F039FA32464946204601F09CFA12
:10192000A0BB606A216800788862606A401C6062BF
:10193000608D401E6085208D401E80B22085618DA7
:10194000D9B1D0B94B46002280212046009601F043
:1019500031FAD8B9608DFF2805D927853A46434624
:10196000009506E026E0608D2085009594F82820FB
:1019700053462046049901F007FA608D0028CAD129
:1019800032464946204601F041FA18B1012007B01D
:10199000BDE8F08F20682021C16120684268064BB5
:1019A0001A40426084F8411084F8425084F8405054
:1019B0000020ECE70220EAE700E800FE10B586B060
:1019C000044614216846FEF76FFC134920688842DC
:1019D0001FD1124CE06C40F00100E064E06C6946FD
:1019E00000F0010005904FF440700090122001902B
:1019F000002002900390042004904FF09040FFF7E5
:101A0000DFFCA06D40F48000A065A06D00F48000B4
:101A1000059006B010BD00000058004000100240C4
:101A2000024881684268114481607047A400002028
:101A300010B50024032000F073F8002000F008F82F
:101A400008B1012401E000F025F8204610BD000097
:101A500070B50E4E05460024706898B14FF47A7147
:101A6000B1FBF0F00A490968B1FBF0F000F0A0FD0D
:101A700040B9102D06D200222946501E00F030F841
:101A8000356000E00124204670BD0000A400002065
:101A9000B00000200A4882B0016E41F001010166E9
:101AA000016E01F001010091816D41F0805181656D
:101AB000806D00F08050009002B000F0A1B80000EE
:101AC00000100240002809DB00F01F0201219140B4
:101AD0004009800000F1E020C0F8001170470000CC
:101AE000F0B40E4B1B680C46C3F30223C3F1070589
:101AF000042D00D90425191D072901D2002300E077
:101B0000DB1E012606FA05F1491E214099409E4040
:101B1000761E16403143F0BC02F07FBB0CED00E0B6
:101B2000064900F0070208684FF6FF03184040EA34
:101B30000220034A10430860704700000CED00E0EB
:101B40000000FA052B492C4B0A6832214A432B49E5
:101B500040B1B0F5007F086829D020F4C06040F49F
:101B600080602CE00868C0F34120022804D051F8BE
:101B7000800F20F4807022E0D1F8800020F4807083
:101B8000C1F88000086820F4C06040F4007008606C
:101B9000B2FBF3F0401C00E0401E4A69520501D53B
:101BA0000028F9D1486940050AD503207047C0F3E1
:101BB0004120022806D051F8800F40F48070086060
:101BC00000207047D1F8800040F48070C1F8800098
:101BD000086820F4C06040F400700860B2FBF3F0C5
:101BE000401C00E0401E4A695205DBD50028F9D1AF
:101BF000D8E70000B000002040420F000070004015
:101C00000248816841F48041816070470070004063
:101C10002DE9F843044600680026BB4D00035ED55D
:101C2000A86D0027C00008D4A86D40F08050A865BA
:101C3000A86D012700F080500090DFF8D092D9F80D
:101C4000001041F48071C9F80010FFF7A3FC804632
:101C500006E000BFFFF79EFCA0EB080002282BD88F
:101C6000D9F80000C005F5D5D5F8900010F4407003
:101C700014D0216D814211D0D5F89000D5F8901084
:101C800020F4407041F48031C5F89010D5F89010E0
:101C900021F48031C5F89010C5F89000C00711D02C
:101CA000FFF778FC804641F2883907E0FFF772FCC5
:101CB000A0EB0801494501D903260BE0D5F89000B7
:101CC0008007F3D5D5F89000216D20F440700843CB
:101CD000C5F890001FB1A86D20F08050A86520784D
:101CE000C00707D0D5F88800616820F003000843DA
:101CF000C5F888002078800707D5D5F88800A16846
:101D000020F00C000843C5F888002078400707D56C
:101D1000D5F88800E16820F030000843C5F8880055
:101D20002078000707D5D5F88800216920F0C00089
:101D30000843C5F888002078C00607D5D5F8880084
:101D4000616920F440700843C5F888002078800657
:101D500007D5D5F88800A16920F440600843C5F88C
:101D600088002078400607D5D5F88800E16920F47E
:101D700040500843C5F888002078000607D5D5F8FC
:101D80008800216A20F440400843C5F88800208874
:101D9000C00507D5D5F88800616A20F440300843B3
:101DA000C5F888002068800307D5D5F89C00A16A93
:101DB00020F003000843C5F89C002088800507D563
:101DC000D5F88800E16A20F440200843C5F888006F
:101DD000208840050FD5D5F88800216B20F44010ED
:101DE0000843C5F88800206BB0F5801F03D1E86870
:101DF00040F48010E860208800050FD5D5F88800F1
:101E0000616B20F440000843C5F88800606BB0F5B2
:101E1000800F03D1E86840F48010E8602088C00497
:101E20000FD5D5F88800A16B20F040700843C5F8A5
:101E30008800A06BB0F1807F03D1E86840F4801087
:101E4000E86020884FF0006180040ED5D5F8880046
:101E5000E26B20F040601043C5F88800E06B8842D8
:101E600003D1E86840F48010E860208840040ED573
:101E7000D5F88800226C20F040601043C5F8880037
:101E8000206C884203D1E86840F48010E860208824
:101E900000040FD5D5F88800616C20F0405008434D
:101EA000C5F88800606CB0F1805F03D1E86840F449
:101EB0008030E8602068C0030FD5D5F88800A16C99
:101EC00020F040400843C5F88800A06CB0F1804F76
:101ED00003D1E86840F48030E860206840030FD503
:101EE000D5F89C00E16C20F440100843C5F89C0034
:101EF000E06CB0F5001F03D1E86840F48010E860A2
:101F00003046BDE8F8830000001002400070004039
:101F10002DE9F0470E4605004FF0000725D0DFF809
:101F2000AC81D8F8000000F00F00B0420CD2D8F815
:101F3000001021F00F013143C8F80010D8F800005C
:101F400000F00F00B04210D12968614CC80741F27F
:101F5000883A5AD06868DFF87C91032808D00228B4
:101F600020682DD0400500282CDB0120BDE8F0873B
:101F700020688001F9D5E06800F00302E068C0F352
:101F80000310401C032A19D0534A00BFB2FBF0F0E3
:101F9000E268C2F306225043E268C2F34162521C77
:101FA0005200B0FBF2F0484517D9A06810F0F00FCE
:101FB0000CD0880711D5A86840B10EE0474AE5E784
:101FC0008003D0E700F0B6F8484506D9A06820F0B5
:101FD000F00040F08000A0608027A068696820F0D1
:101FE00003000843A060FFF7D5FA814606E000BF72
:101FF000FFF7D0FAA0EB090151453AD8A06869680B
:1020000000F00C00B0EB810FF2D12868810714D5E5
:10201000400703D5A06840F4E060A060287800077E
:1020200005D5A06820F4605040F4E060A060A0688E
:10203000A96820F0F000084304E0802F03D1A068D5
:1020400020F0F000A060D8F80010404601F00F0129
:10205000B14216D9016821F00F0131430160FFF749
:1020600099FA074607E000BFFFF794FAC11B5145F4
:1020700001D903207AE7D8F8000000F00F00B04241
:10208000F2D12878400705D5A068E96820F4E0601F
:102090000843A0602878000706D5A068296920F4C5
:1020A000605040EAC100A06000F044F8A1680C4A0A
:1020B000C1F30311515C01F01F01C84009490860D8
:1020C00009480068BDE8F047FFF7C2BC00200240A5
:1020D0000010024000B4C4040024F40000366E0175
:1020E000AC760008B0000020A40000200548064996
:1020F00000688968054AC1F30221515C01F01F01A3
:10210000C8407047B000002000100240BC760008B4
:102110000548064900688968054AC1F3C221515C37
:1021200001F01F01C8407047B000002000100240BD
:10213000BC760008184910B58868C0F381021748BA
:10214000012A0BD08A68164BC2F38102022A06D0FC
:102150008A68C2F38102032A03D0002010BD18460A
:1021600010BDCA6802F00304CA68C2F30312521C0D
:10217000032C02D0B0FBF2F001E0B3FBF2F0CA682E
:10218000C968C2F306225043C1F34161491C4900AA
:10219000B0FBF1F010BD0000001002400024F4007C
:1021A00000366E012DE9F84304007AD02078FA4D0C
:1021B000C00747D0A868E96800F00C0001F00301EF
:1021C0000C2802D0082817D001E0032914D0606839
:1021D000B0F5803F17D0B0F5A02F286817D020F4B5
:1021E00080302860286820F4802028606068E0B192
:1021F000FFF7D0F9064614E02868800322D560680E
:102200000028D2D01EE0286840F48030EDE740F48A
:1022100080202860F7E700BFFFF7BCF9801B642827
:1022200070D828688003F7D50CE0FFF7B3F90646AD
:1022300005E000BFFFF7AEF9801B6428F0D82868DE
:102240008003F7D4207880074CD5A868E96800F0AF
:102250000C0001F003010C2802D004280DD001E08D
:1022600002290AD0E068002828682BD040F480704A
:102270002860FFF78FF9064619E02868400502D567
:10228000E068002891D06868217C20F0FE4040EA98
:1022900001606860C1480068FFF7DAFB002800D1E0
:1022A00020E076E1FFF776F9801B0228B8D828688D
:1022B0004005F7D56868217C20F0FE4040EA0160C7
:1022C00068600FE020F480702860FFF763F906462D
:1022D00005E000BFFFF75EF9801B0228A0D8286840
:1022E0004005F7D42078000729D560690028D5F883
:1022F000940013D040F00100C5F89400FFF74AF9AC
:10230000064606E090E000BFFFF744F9801B022874
:1023100086D8D5F894008007F6D510E020F00100AB
:10232000C5F89400FFF736F9064604E0FFF732F9E6
:10233000801B022878D8D5F894008007F6D420783E
:10234000400761D5A86D0026C00008D4A86D40F0F4
:102350008050A865A86D012600F08050009090483C
:102360000168C90511D40168804641F4807101609B
:10237000FFF710F9074604E0FFF70CF9C01B02282D
:1023800052D8D8F80000C005F6D5A068012815D0AD
:102390000528D5F8900016D020F00100C5F890006F
:1023A000D5F8900020F00400C5F89000A06841F234
:1023B0008838B8B1FFF7EEF807460EE0D5F8900080
:1023C00040F00100F0E740F00400C5F89000F5E7A8
:1023D000FFF7E0F8C11B414526D8D5F890008007EB
:1023E000F6D50CE0FFF7D6F8074604E0FFF7D2F881
:1023F000C11B414518D8D5F890008007F6D41EB10E
:10240000A86D20F08050A8652078800629D5A069A5
:102410000028D5F8980013D040F00100C5F89800C6
:10242000FFF7B8F8064606E077E000BFFFF7B2F81E
:10243000801B022877D8D5F898008007F6D510E0E1
:1024400020F00100C5F89800FFF7A4F8064604E064
:10245000FFF7A0F8801B022865D8D5F89800800700
:10246000F6D4E069F0B3A968C1F38101032961D012
:102470000228286820F0807028600BD0E86820F0DF
:102480000300E860E86847490840E860FFF782F821
:1024900004464BE0FFF77EF8064604E0FFF77AF8C3
:1024A000801B02283FD828688001F7D4F4E908018E
:1024B0006FF00F0202EB01110843218A5204490810
:1024C00002EB4151A26841EA02210843217D4FF00D
:1024D0007E42490802EB41610843217B40EAC1602A
:1024E000E96800E062E0304A11400843E86028688B
:1024F00040F080702860E86840F08070E860FFF786
:1025000049F8044605E000BFFFF744F8001B022825
:1025100009D828688001F7D548E004E0FFF73AF8C9
:10252000001B022802D90320BDE8F8832868800137
:10253000F4D43BE00128F7D0E868226A00F00301F8
:10254000914226D1616A00F0F002090110399142EE
:102550001FD1A26A00F4FE41B1EB022F19D194F809
:102560002C2000F07841B1EBC26F12D1218E00F423
:10257000C00249084905A1F50011914209D194F81A
:10258000341000F0C06049084906A1F10071814291
:102590000CD00120C8E7000000100240A400002079
:1025A00000700040FFFFEEFE0C809F010020BBE7A3
:1025B00010B5401EB0F1807F01D3012010BD4FF057
:1025C000E02460610F21601701F027FE0020A06168
:1025D00007202061002010BD90F88010012918D03C
:1025E000012180F880102421C0F8841050F8641B69
:1025F0000A680B6823F001030B6022F000510022EF
:10260000026050F8643C1960202101620277104694
:102610007047022070477047704770B5044690F8C5
:10262000800001281DD0012084F880002420C4F8F7
:10263000840020680568026822F0010202602068B8
:10264000826822F060620A438260204601F00CFA40
:10265000206805602020C4F88400002084F88000F1
:1026600070BD022070BD70B5044690F8800001284E
:102670001DD0012084F880002420C4F88400206844
:102680000568026822F0010202602068826822F078
:1026900060420A438260204601F0E6F92068056046
:1026A0002020C4F88400002084F8800070BD02203F
:1026B00070BD7047704770B5D0F884100446D0F8EC
:1026C0008850006882684FF01006120612D5212942
:1026D00010D1816821F080018160A06F38B1FEF7D0
:1026E000C9FC20B1A06FFEF736FD20281BD0204684
:1026F00001F0FCFA20688168490612D5222D10D11C
:10270000816821F040018160E06F38B1FEF7B2FCD2
:1027100020B1E06FFEF71FFD202804D0204601F015
:10272000C9FA002070BDC4F88C60032070BD7047EA
:102730002DE9F04103680446D86919689A6840F6A3
:102740000F0528424FF0000509D186067ED501F01D
:10275000200602F080573E4378D0216FFFE0924E72
:10276000924F16400F40374370D0C70709D0CF05AE
:1027700007D501271F62D4F88C3043F00103C4F859
:102780008C3083070AD5D30708D0276802233B6221
:10279000D4F88C3043F00403C4F88C3043070AD5D6
:1027A000D30708D0276804233B62D4F88C3043F069
:1027B0000203C4F88C3003070CD501F02003334327
:1027C00008D0266808233362D4F88C3043F008031D
:1027D000C4F88C3003050BD54B0109D526684FF49E
:1027E00000633362D4F88C3043F02003C4F88C309B
:1027F000D4F88C30002B34D0800609D501F02000AD
:1028000002F08051084303D0216F09B12046884768
:10281000D4F88C0021688968490602D410F0280F8A
:1028200021D0204601F046FA20688168490615D576
:10283000816821F040018160E06F78B15C4981637B
:10284000E06FFEF74CFC00280BD000E011E0E06FD9
:10285000816B00E02046BDE8F04108472046FFF7C5
:1028600066FFBDE8F0812046FFF761FFC4F88C5099
:10287000F7E7E76E2026012F5CD1C7065AD5CF06B1
:1028800058D5102018622068816849062FD5E26F5C
:10289000116849680904090CE3D0B4F85C308B4234
:1028A000DFD9A4F85E1011680968890618D4016898
:1028B00021F4807101602068816821F0010181604C
:1028C0002068816821F040018160C4F88860E56675
:1028D0002068016821F010010160E06FFEF7CAFB7B
:1028E000B4F85C00B4F85E10401A81B21EE0B4F88F
:1028F0005C10B4F85E20891AB4F85E2089B2002A10
:10290000AFD00029ADD0026822F490720260206836
:102910008268254BDB431A408260C4F88860E56614
:1029200025672068026822F0100202602046FFF747
:1029300072FE96E7C70209D5570207D54FF48010FB
:1029400018622046BDE8F041FFF7B4BE07060AD57D
:1029500001F0800702F40002174304D0616F0029E0
:102960007FF478AF7DE742060CD54A060AD5196890
:10297000204621F040011960C4F88460656700F0CA
:1029800049F96EE7020206D54A0004D52046BDE8A3
:10299000F041FFF78EBEC001CBD50029C9DA204631
:1029A000BDE8F041FFF738BE01000010200100042F
:1029B000D53B000810B5040003D0D4F8840010B152
:1029C00007E0012010BD002084F88000204600F0C0
:1029D00027F82420C4F884002068016821F0010150
:1029E0000160204601F090F90128EBD0A06A10B1F7
:1029F000204601F05BF82068416821F49041416075
:102A00002068816821F02A0181602068016841F016
:102A1000010101602046BDE8104001F0ABB80000A4
:102A200070B586B0064614216846FDF73DFC304B74
:102A3000326800252F4902209A421CD1CA6D42F00B
:102A40000102CA65CA6D02F001020592CA6C42F029
:102A50000102CA64C96C01F0010105910C210091C9
:102A6000CDE90105CDE9035169464FF09040FEF7ED
:102A7000A7FC06B070BD204B9A42FAD10A6E42F410
:102A800080420A660A6E02F480420592CA6C42F0E5
:102A90000402CA64C96C01F004010591302100915F
:102AA000CDE901050720CDE9035069461348FEF73B
:102AB00087FC144C124820601820C4E901058020CE
:102AC000C4E9035020206561C4E906502046256210
:102AD000FEF7A0FB08B1FEF755FAF46700220121CA
:102AE0002520A662FEF7FCFF2520FEF7EBFFC0E7DE
:102AF00000800040001002400038014000080048FB
:102B0000080002401816002030B4D0F88830202B7E
:102B10001BD1B9B1B2B190F88030012B15D001238F
:102B200080F880300023C366094C0368A34206D0B6
:102B30005C68240203D51C6844F080641C6030BCCF
:102B400001F030BA012030BC70470220FBE70000E2
:102B500000800040704770472DE9F8430446D0F8E4
:102B600084001F4616460D46202851D1DDB1D6B14E
:102B700094F8800001284BD0012084F880004FF0A9
:102B80000008C4F88C802120C4F884001834FEF7B3
:102B900001FDA6878146E68754F8100C183CB0F575
:102BA000805F03D004E00120BDE8F883206920B1F4
:102BB0002E46002584F8808010E00026FAE7802168
:102BC000204601F031FAB8B9C6B116F8010B2168F8
:102BD0008862B4F85600401EA4F85600B4F85600B7
:102BE0004B464FF0000200970028E8D14FF040011B
:102BF000204601F019FA30B10320D5E735F8020B71
:102C0000C0F30800E3E72020C4F884000020CBE7ED
:102C10000220C9E77047FEE701688A69D24392073C
:102C200001D400228A6200688169C943C90703D0C0
:102C3000816941F001018161704700002DE9F04197
:102C40000446006890460E468069C043C00633D4EF
:102C50000025202720688069C043800615D5701C98
:102C6000F8D0FEF797FCA0EB0800B04201D8002E88
:102C7000F0D154F8440F40F0200044F80409677084
:102C8000A57025700120BDE8F08121681020C86181
:102C90002068C7612046FFF7BFFF54F8440B416826
:102CA000064A11404160206840F0040044F82009C1
:102CB0006777A5772577E5E70020E4E700E800FEE1
:102CC0002DE9F84304461646DDE90897144898466E
:102CD000DAB200900023204600F056F83A46494602
:102CE000204600F0B9F8B8B9F5B2B8F1010F08D034
:102CF0002168300A88623A464946204600F0ACF81E
:102D000050B9206885624B4600224021204600973A
:102D100000F050F8002800D00120BDE8F883000042
:102D2000002000802DE9F8430446164615489846D1
:102D3000DDE90897DAB2C3020090204600F024F8DB
:102D40003A464946204600F087F8B8B9F5B2B8F1DE
:102D5000010F08D02168300A88623A464946204669
:102D600000F07AF850B9206885624B460022802135
:102D70002046009700F01EF8002800D00120BDE892
:102D8000F883000000200080F0B50568059C6868A5
:102D90004FF48066064FC1F3090106EA545641EA32
:102DA00002413E431943B043214308436860F0BDEC
:102DB000FF63FF032DE9F0411D4617460E4604460A
:102DC000DDF8188008E0681C06D0FEF7E3FBA0EBF6
:102DD0000800A8420BD855B12068806936EA000087
:102DE00012D00020B842EED00020BDE8F08154F8A7
:102DF000440F40F0200044F80409202060700020B7
:102E0000A07020700120F0E70120EBE770B51646B6
:102E10000D4604460DE0324629462046FFF70EFFD8
:102E200008B1012070BDFEF7B5FB801BA84207D892
:102E300035B120688069C0438006ECD4002070BDA5
:102E400054F8440F40F0200044F80409202060703A
:102E50000020A0702070E4E770B516460D460446C9
:102E60000FE0324629462046FFF7E8FE08B1012070
:102E700070BD681C05D0FEF78DFB801BA84207D8EB
:102E800035B120688069C0438007EAD4002070BD56
:102E900054F8440F40F0200044F8040920206070EA
:102EA0000020A0702070E2E770B504462DED108B75
:102EB00082B0B0EE429AF0EE629AB0EE40FAF0EED6
:102EC00060FA90ED08EB51EC110B53EC1E2BFDF763
:102ED000C9FA41EC100B51EC190B53EC102BFDF718
:102EE000C7FA94ED061B53EC112BFDF71AFA94ED7B
:102EF00010DB41EC1A0B53EC1D2B51EC190BFDF7B9
:102F0000B7FA0E4646EC100B94ED0CCB054653EC8D
:102F10001C2B51EC100BFDF7A5FA94ED0EBB53ECF6
:102F20001B2BFDF79FFA94ED001B53EC112BFDF7C3
:102F3000F8F953EC192BFDF79BFA94ED0A1B53ECAF
:102F4000112BFDF7EEF946EC105B41EC180B53EC3E
:102F50001C2B51EC100BFDF788FA46EC105B41EC92
:102F60001C0B53EC1B2B51EC100BFDF77EFA94ED70
:102F7000020B41EC1B0B53EC192B51EC100BFDF722
:102F800077FA53EC1D2BFDF7CCF941EC100B51EC0B
:102F9000180B8DED000B94ED040B53EC102BFDF78B
:102FA000C0F941EC190B51EC180B53EC192BFDF740
:102FB000D1FA41EC1D0B53EC192B51EC1B0BFDF717
:102FC000C9FA41EC190B53EC1A2B51EC1F0BFDF70E
:102FD00049FA41EC1F0B51EC1D0B53EC1F2BFDF775
:102FE00047FA53EC1A2BFDF79CF941EC1A0B53EC02
:102FF0001F2B84ED06AB51EC190BFDF739FA53EC9E
:103000001E2BFDF78EF9C4E9080153EC182B51EC87
:103010001D0BFDF72DFA53EC182BFDF726FAC4E92A
:103020000A0153EC1C2B51EC1D0BFDF721FA53EC5C
:103030001C2BFDF71AFAC4E90C0153EC182B51ECC8
:10304000190BFDF715FA53EC1B2BFDF70EFAC4E92B
:103050000E0153EC1C2B51EC190BFDF709FA9DEDF9
:10306000000B53EC102BFDF700FAC4E9100102B07D
:10307000B0EE4A0AF0EE6A0ABDEC108B70BD2DE985
:10308000F04186B08046012504A8CDE900056424FE
:103090002B467522D02102944046FEF731FB9DF865
:1030A0001000682803D0012006B0BDE8F081002799
:1030B00003AE8DF80C700096CDE9015401236B220C
:1030C000D0214046FEF7CEFB07208DF80C0000967D
:1030D000CDE9015401231922D0214046FEF7C2FB5D
:1030E0008DF80C700096CDE9015401231C22D021EB
:1030F0004046FEF7B7FB8DF80C700096CDE9015401
:1031000001231B22D0214046FEF7ACFB0020CBE779
:103110002DE9F0470C462DED0C8B88B09FED9A9B66
:103120009FED9BDB9FED9CBB9FED9DAB64230E222F
:1031300003A98DE80E0001233B22D021FEF7E0FA1F
:10314000BDF80C0040BA00B22080BDF80E1049BA9C
:103150000EB26680BDF8101049BA0DB2A580BDF858
:10316000121049BA0FFA81FABDF8141049BA0FB219
:103170002784BDF8161049BA09B261848946BDF8A2
:10318000181049BA09B2A1848846FDF752FA9FED9A
:10319000868B53EC182BFDF76BF9C4E9020130461E
:1031A000FDF747FA53EC182BFDF762F9C4E9040167
:1031B0002846FDF73EFA9FED7E1B53EC112BFDF7E1
:1031C000C9F900EE10AAB8EEC00A9FED7B1AC0EE56
:1031D000010A9FED7A0AC4E90601384630EE800AFA
:1031E00084ED100AFDF725FA9FED758B53EC182B33
:1031F000FDF7B0F9C4E90A014846FDF71AFA53ECA5
:10320000182BFDF7A7F9C4E90C014046FDF711FAA8
:1032100053EC182BFDF79EF9C4E90E01FEF7BAF93D
:10322000694D2968401AFDF715FA9FED681B53ECAC
:10323000112BFDF78FF941EC1C0BFEF7ABF9286061
:10324000208810FB00F1A08810FB0010FDF7F1F9B9
:1032500041EC100B02F004FAB0EE408AF0EE608A06
:1032600053EC192B51EC180BFDF72EFA13D0B4F9CF
:103270000200FDF7DEF953EC182BFDF76BF941EC7A
:10328000100B01F059F853EC1D2B51EC100BFDF70E
:10329000EFF841EC190BB4F90400FDF7CAF941EC61
:1032A000180BB4F900004042FDF7C3F941EC100BD4
:1032B000B0EE481AF0EE681A01F0AAF953EC1D2B93
:1032C00051EC100BFDF7D4F841EC180B53EC1B2B11
:1032D000FDF7FAF908D294ED140B53EC1A2B51ECCC
:1032E000100BFDF709FA0FD353EC1A2B51EC180B06
:1032F000FDF702FA11D294ED140B53EC1B2B51EC99
:10330000100BFDF7E1F908D22F48503080ED068B05
:1033100084ED148B94ED140B0FE02B4894ED0C1BF3
:10332000B0EE4C2AF0EE6C2AB0EE480AF0EE680AD5
:103330005030FFF7B9FD84ED140B01F05DFB53EC49
:103340001A2B51EC100BFDF7D7F907D294ED0A0BAD
:1033500051EC100B81F00041C4E90A011A4894EDC8
:103360000A1BB0EE4C2AF0EE6C2AB0EE490AF0EEE1
:10337000690A0830FFF798FD84ED120B08B0BDEC28
:103380000C8BBDE8F087000000000000000000008A
:10339000F8C1631ADCA54C4000000000008056C054
:1033A0000000000000805640000000000000103FB8
:1033B000000000000029CC400000AA43B81E1242C1
:1033C00000000000006060400800002000000000D5
:1033D00000408F400A4810B5084901600021017182
:1033E00041714161816101210162FDF7F5FD002814
:1033F00003D0BDE81040FDF7C5BD10BD0030024050
:10340000A81500200D4808B5816C41F004018164C5
:10341000816C01F004010091816C41F00101816433
:10342000806C002200F00100009001210B20FEF7CB
:1034300057FBBDE808400B20FEF744BB00100240DC
:103440002DE9F04186B014216846FCF72DFF334882
:10345000C16C41F00401C164C16C01F0040105912B
:10346000C16C41F02001C164C16C01F020010591E3
:10347000C16C41F00101C164C16C01F00101059111
:10348000C16C41F00201C164C06C254E00F0020025
:103490000590012202213046FEF776F84FF0904762
:1034A000002232213846FEF76FF8DFF878800022DC
:1034B00001214046FEF768F84FF4005000901A488A
:1034C0000025CDE9010569463046FDF779FF012465
:1034D0000220CDE9000469463046CDE90245FDF7FA
:1034E0006FFF3220CDE9000469463846CDE9024538
:1034F000FDF766FF0094694640460194CDE9024518
:10350000FDF75EFF002202212820FEF7E9FA2820BD
:10351000FEF7D8FA06B0BDE8F081000000100240C6
:10352000000800480004004800001110134810B5BE
:10353000114901601249416000210122C0E90212D3
:10354000016141618161C1610162FEF77DF808B1ED
:10355000FDF718FD00210948FEF722F808B1FDF734
:1035600011FD00210548FEF746F8002803D0BDE80C
:103570001040FDF707BD10BD00580040CC150020DD
:103580009B2D8010174810B5154901604FF4E131AB
:103590004160002181600C22C160C0E90412816198
:1035A000016241628162FFF705FA08B1FDF7EAFCAA
:1035B00000210C48FFF757F808B1FDF7E3FC0021A4
:1035C0000848FFF72AF808B1FDF7DCFC0548FFF7CB
:1035D00003F8002803D0BDE81040FDF7D3BC10BDB0
:1035E0000080004078160020184810B51649016088
:1035F0004FF4E1314160002181600C22C160C0E9DB
:1036000004128161C161016241628162FFF7D2F9F6
:1036100008B1FDF7B7FC00210C48FFF724F808B10A
:10362000FDF7B0FC00210948FEF7F7FF08B1FDF7F0
:10363000A9FC0648FEF7D0FF002803D0BDE81040E3
:10364000FDF7A0BC10BD00000038014008170020A5
:1036500010B505A000F0A6FD03F084FABDE8104007
:10366000094903F06DB800000D0A54454D504C4116
:103670005445202D20696E697469616C697A6174A2
:10368000696F6E0D0A0000003C1301202DE9F04F18
:10369000B4492DED028B8FB0087806287ED8401CE7
:1036A0000870B149B148FFF733FDB14D40F2CF701A
:1036B00005F57A5605F5FA5A06F5FA5B05F5FA4767
:1036C00006F5FA4905EB800111ED010A81ED000ACA
:1036D0000AEB800111ED010A81ED000A06EB800181
:1036E00011ED010A81ED000A0BEB800111ED010AD9
:1036F00081ED000A07EB800111ED010A81ED000A5E
:103700009C4901EB800111ED010A81ED000A09EBF2
:10371000800111ED010A81ED000A974901EB80015A
:10372000401E11ED010A00B281ED000A0028C9DC3B
:103730008D4C94ED020B51EC100BFCF7F5FF28605B
:1037400094ED040B804651EC100BFCF7EDFFCAF82A
:10375000000094ED060B51EC100BFCF7E5FF306018
:10376000FCF79EFF41EC180B4046FCF799FF41EC3B
:10377000100BB0EE481AF0EE681A00F049FF51EC59
:10378000100BFCF7D1FFCBF8000094ED0A0B51ECC5
:10379000100BFCF7C9FF0546386000E0DFE094ED50
:1037A0000C0B51EC100BFCF7BFFF7249086094ED55
:1037B0000E0B51EC100BFCF7B7FFC9F80000FCF73B
:1037C0006FFF41EC180B2846FCF76AFF41EC100B29
:1037D000B0EE481AF0EE681A00F01AFF51EC100B28
:1037E000FCF7A2FF64490860A1F5FA4003F010FE5F
:1037F0005C4C5F4884ED080A03F0F0FD84ED030A99
:103800005E4803F0EBFD84ED040A5D4803F0E6FD3D
:1038100084ED050A5B4803F0E1FD84ED060A594892
:1038200094ED080A03F0F4FE84ED070A524803F011
:10383000EFFD84ED0E0A544803F0D0FD84ED090A33
:103840004C4803F0CBFD84ED0A0A504803F0C6FD56
:1038500084ED0B0A484803F0C1FD84ED0C0A46488C
:1038600094ED0E0A03F0D4FE414D84ED0D0AD4ED23
:10387000030AE03D1822C5ED000AD4ED040A4449CC
:10388000C5ED010AD4ED050A02A8C5ED020AD4ED82
:10389000060AC5ED030AD4ED070AC5ED040AD4ED06
:1038A000080AC5ED050AD4ED090AC5ED060AD4EDEE
:1038B0000A0AC5ED070AD4ED0B0AC5ED080AD4EDD6
:1038C0000C0AC5ED090A85ED0A0A94ED0E0A85ED8C
:1038D0000B0AFCF7D0FC2E491822183108A8FCF777
:1038E000CAFC01200695C035ADF80C00ADF82400E7
:1038F0000C9508AA02A9A06803F07EF9286804F1D3
:103900003C078046386068687860FCF7C9FE054669
:103910000E464046FCF7C4FE41EC100BCDE90056C4
:1039200053EC102B1BA000F03DFC97ED010AD4EDE9
:10393000010AB4EEE00AF1EE10FA0BDB1FA000F072
:1039400031FC002202211F48FDF71EFE40F6B83070
:10395000FDF706FD0FB0BDEC028BBDE8F08F002037
:103960000870F7E70409002050090020CC1500205A
:10397000C818002008B5002088F30020083800206F
:103980004857002088760020C895002048D40020A1
:10399000D4840008D5FDB3A3D7B4CCACC6A5C5E488
:1039A000B6C83A25662CB5F8B5B9D7B4CCACC6A51F
:1039B000C5E4B6C83A25660D0A000000B5F8B5B9E9
:1039C000A3A1000000080048FEE7FEE7704770472B
:1039D000FEF726B810B5A8B0382115A8FCF764FC8E
:1039E000142123A8FCF760FC54216846FCF75CFC1A
:1039F0000020FEF7A7F80120159000041690022081
:103A0000032406211C90CDE91D415521CDE91F104D
:103A10002190229015A8FEF7C5FB08B172B6FEE70B
:103A20000F20CDE92304002425942694042123A803
:103A30002794FEF76DFA08B172B6FEE7A120CDE932
:103A40000004069468460894FEF7E2F8002801D0C6
:103A500072B6FEE728B010BD0248016841F470015B
:103A60000160704788ED00E030B5416EB9B1026881
:103A700091689268C1F342610B4B520F9C5CE50068
:103A800003F10804A25CB5FBF2F2A0F86A205A5CCC
:103A9000615CD200B2FBF1F1A0F8681030BD0121E9
:103AA000A0F86A10F8E700009C76000890F828104B
:103AB000C90706D001684A68C36A22F400321A4373
:103AC0004A6090F82810890706D501684A68036B98
:103AD00022F480321A434A6090F82810490706D52C
:103AE00001684A68436B22F480221A434A6090F8C6
:103AF0002810090706D501684A68836B22F4004242
:103B00001A434A6090F82810C90606D501688A68E9
:103B1000C36B22F480521A438A6090F828108906F9
:103B200006D501688A68036C22F400521A438A6041
:103B300090F82810490611D501684A68436C22F4B0
:103B400080121A434A60416CB1F5801F06D10168AA
:103B50004A68836C22F4C0021A434A6090F8281025
:103B6000090606D501684A68C06C22F400220243A7
:103B70004A607047F8B500260446C0F88C60FDF72F
:103B800009FD0546206800686FF07E47000708D5EC
:103B90002B4600224FF400112046009700F044FA13
:103BA00060B92068006840070AD52B4600224FF410
:103BB00080012046009700F037FA08B10320F8BDD5
:103BC0002020C4F88400C4F8880044F86C6F0020FA
:103BD0002675F8BD10B5806A0021A0F85E10A0F827
:103BE0005610FEF7A4FD10BD70B5846AD4F88400A9
:103BF000D4F88850216889684FF00006090606D578
:103C0000212804D1A4F85660204600F06FF82068FF
:103C10008068400606D5222D04D1A4F85E602046B7
:103C200000F048F8D4F88C0040F01000C4F88C0084
:103C30002046FEF77CFD70BD10B50146806A09681C
:103C4000096889061CD40021A0F85E1001680A6882
:103C500022F480720A6001688A6822F001028A6098
:103C600001688A6822F040028A602021C0F888102A
:103C7000C16E012904D101680A6822F010020A60AD
:103C8000C16E012902D0FEF765FF10BDB0F85C10CF
:103C9000FEF7C1FC10BD10B5806AC16E012902D0CB
:103CA000FEF759FF10BDB0F85C104908FEF7B3FCF1
:103CB00010BD000001680A6822F490720A60016871
:103CC0008A68094B1A408A60C16E012904D10168D3
:103CD0000A6822F010020A602021C0F88810002132
:103CE000C166016770470000FEFFFFEF01680A68C8
:103CF00022F0C0020A6001688A6822F400028A6029
:103D00002021C0F8841070472DE9F0410446016875
:103D100080682269E3691043626900251A431043F1
:103D2000DFF850C20A68944B1A4002430A602068C8
:103D30004168E26821F44051114341602168A06963
:103D4000614501D0226A10438A688C4B1A400243B5
:103D50008A602068C16A626A21F00F011143C16262
:103D60008749236887488B420DD1D0F8880010F02E
:103D7000030006D0012867D0022854D0032851D16F
:103D800064E001204FE080498B420BD1D0F88800DD
:103D900010F00C0047D0042845D0082852D00C2839
:103DA00040D153E079498B420BD1D0F8880010F014
:103DB000300038D0102847D0202843D0302831D1C7
:103DC00044E073498B420BD1D0F8880010F0C0005A
:103DD00029D0402838D0802834D0C02822D135E0DE
:103DE0006C498B420ED1D0F8880010F440701AD084
:103DF000B0F5807F28D0B0F5007F23D0B0F5407FAC
:103E000010D123E063450DD1D0F8880010F4406054
:103E100009D0B0F5806F17D0B0F5006F12D0B0F5B3
:103E2000406F13D010205C4A5C4F00264FF40041D5
:103E3000634539D160B102280DD004280DD008287F
:103E400031D10EE00220EEE70420ECE70820EAE79B
:103E5000FEF74CF903E0114603E0FEF76BF90100B1
:103E60007DD0606A37F810206768B1FBF2F007EB8D
:103E7000470383426CD8B0EB073F69D8002308465C
:103E80001946FCF7C7F9090241EA106102027808F5
:103E9000101871413A460023FCF7BCF9404AA0F5DE
:103EA0004071914259D953E0E3694FF6EF788B4264
:103EB0002DD109284CD2DFE800F005080D4B274B27
:103EC0004B4B0E00FEF712F901E0FEF721F901005D
:103ED00001D144E01146606A37F81000B1FBF0F000
:103EE0004100606801EB5001B1FBF0F080B2A0F13D
:103EF000100141452CD84FF6F0710140C0F342004B
:103F000001432068C1602AE0FEF714F9DFE70928C1
:103F10001ED2DFE800F005080D1D1F1D1D1D0E003F
:103F2000FEF7E4F801E0FEF7F3F8010001D116E036
:103F30001146606A37F81000B1FBF0F1606801EBE0
:103F40005001B1FBF0F080B2A0F11001414504D95D
:103F5000012504E0FEF7EEF8E7E72168C8600120DC
:103F6000A4F86A0024F8680F2846A660E660BDE859
:103F7000F081000000800040F369FFCFFFF4FF11E3
:103F8000003801400010024000440040004800405A
:103F9000004C0040005000400024F40084760008EB
:103FA000FFFC0F0070B58165A0F85C200025044679
:103FB000C0F88C502220C4F88800E06FD8B11749AF
:103FC000C162E16F164813460863E16F1548486304
:103FD000E06F8563A66D216832462431E06FFDF7FE
:103FE00079F940B11020C4F88C0004F8805F2020DB
:103FF0006060012070BD84F880502068016841F441
:10400000807101602068816841F001018160206851
:10401000816841F040018160002070BD393C00089A
:10402000973C0008E93B00082DE9F0479A461746FF
:104030000E4604464FF000094FF02008089D39E075
:10404000681C37D0FDF7A6FAA0EB0A00A84222D8D8
:104050000DB32068016849072CD5C069C04300052D
:1040600028D421684FF4006008622068016821F4B8
:10407000D07101602068816821F001018160C4F87D
:104080008480C4F88880C4F88C8000BF84F8809055
:104090000320BDE8F0872068016821F4D071016039
:1040A0002068816821F001018160C4F88480C4F82F
:1040B0008880EBE72068C06936EA000004D0002061
:1040C000B842BDD00020E4E70120F9E710B504486C
:1040D000FEF72EFBBDE81040014800F045B8000097
:1040E0000817002010B51148FEF7E5FA0F48F03820
:1040F000006840684042C1B20DA000F053F8144976
:104100000120087013491448FCF7D9F81148002120
:104110000170114911A000F045F8BDE810404FF4BE
:1041200080620C490148FEF7EFBC00000817002030
:10413000526563656976652044617461286C656EBB
:10414000677468203D202564293A200D0A0000008C
:10415000A0000020A80D0020A809002072782D3EA4
:1041600025730D0A0000000010B5044600680A49D6
:1041700088420FD109480068C169C943C90609D4FA
:10418000102101620F20FDF7EBF82046BDE810403A
:10419000FFF7A8BF10BD000000380140081700203D
:1041A000FEE700000FB4054B10B503A9044A0298BE
:1041B00001F09AFE10BC5DF814FB0000C572000807
:1041C0004809002003B401984100009850EAC1203A
:1041D00018BF04204A0D18BF40F0010040F2FF72E2
:1041E000B2EB515F08BF40F00200012808BF052074
:1041F00002B070474100080218BF04200A0E18BF21
:1042000040F001004FF07F4232EA010108BF40F068
:104210000200012808BF052070470907090E002881
:1042200004DB00F1E02080F80014704700F00F007C
:1042300000F1E02080F8141D704700009FED3C0A5B
:1042400063E000BF92ED003A91ED004AD2ED012A01
:10425000D1ED013A04EE030A92ED022A91ED021A21
:10426000D2ED030AD1ED031A91ED044A03EEA20A3E
:10427000D2ED043A92ED053AD1ED052A01EE020A9B
:1042800092ED062A92ED071A01EEA00AD1ED061A68
:10429000D1ED070A04EE230AD2ED083A91ED084A5F
:1042A00002EE830AD2ED092A91ED093A01EE820A63
:1042B00092ED0A2AD1ED0A1A00EE810A92ED0B1A4C
:1042C000D1ED0B0A04EE230A91ED0C4AD1ED0D3A23
:1042D00003EE220A92ED0C3AD2ED0D2A01EE820A8B
:1042E00092ED0E2AD1ED0F1A00EE810A91ED0E1A11
:1042F000D2ED0F0A40314032103B04EE030A03EEC8
:10430000A20A01EE020A01EEA00A102B9AD206E0E0
:10431000F1EC010A5B1EB2EC011A00EE810A002BDF
:10432000F6D1D0ED000A30EE800A80ED000A704729
:10433000000000000000000070B59B482DED020B4E
:104340002DED068B079D25F00044A04218DC974810
:10435000844202DC0AD1069840B19DED060BBDEC0B
:10436000068B02B0BDE8704001F04EBA002DCCBF04
:104370009FED8F0B9FED900BBDEC068B02B070BDD7
:104380008F48A04215DD8F48A042D8BF4FF0FF34C0
:1043900058DD9DED060B51EC100BFFF713FF0428C1
:1043A00008BF01F065FA9DED060BBDEC068B02B06F
:1043B00070BD9DED060B51EC100B02F057FECDE9E0
:1043C000060181489FED828BA0423CDD8248A042DD
:1043D0001FDD00249FED82AB9DED060B53EC1A2BE5
:1043E00051EC100BFBF79DFF9DED060B41EC190BFB
:1043F00053EC1A2B51EC100BFCF73AF853EC182B3A
:10440000FCF730F853EC192BFCF7A4F8CDE90601C2
:1044100049E09DED060B012453EC182B51EC100BD9
:10442000FBF77FFF9DED060B41EC190B53EC182BAE
:1044300051EC100BFCF716F853EC192BFCF78AF82B
:10444000CDE906012FE06848A0421FDD02249FED60
:10445000689B9DED060B53EC192B51EC100BFCF7F0
:1044600007F853EC182BFBF75CFF9DED060B41ECB6
:10447000180B53EC192B51EC100BFBF7F3FF53EC1B
:10448000182BFCF767F8CDE906010CE09DED060B53
:10449000032453EC102B9FED580B51EC100BFCF741
:1044A00059F8CDE906019DED060B53EC102B51ECAC
:1044B000100BFBF7DDFF41EC180B53EC182BFBF74F
:1044C000D7FF41EC190B4E480621B0EE490AF0EE39
:1044D000690A784401F001F953EC182B51EC100BE8
:1044E000FBF7C6FF41EC180B4648B0EE490AF0EE68
:1044F000690A0521784401F0F0F853EC192B51ECCE
:10450000100BFBF7B5FF41EC100B51EC180B53EC03
:10451000102B002C0EDAFBF704FF9DED061B53EC6D
:10452000112BFBF7A5FF9DED061B53EC112BFBF7A1
:104530009CFF35E0FBF7F5FE9DED061B53EC112BC0
:10454000FBF796FF41EC100B2F48784400EBC400BA
:1045500090ED001B51EC100B53EC112BFBF782FF7D
:104560009DED061B53EC112BFBF77CFF41EC100B70
:104570002648784400EBC40090ED001B51EC100B72
:1045800053EC112BFBF771FF41EC100B002DA2BF78
:10459000BDEC068B02B070BD51EC100B81F00041F8
:1045A00041EC100B01E70000000010440000F07F18
:1045B000182D4454FB21F93F182D4454FB21F9BF19
:1045C0000000DC3F0000203E0000F33F0000000040
:1045D000000000000000F03F0000E63F0000000087
:1045E00000000000000000400080034000000000C8
:1045F000000000000000F83F000000000000F0BFD5
:10460000D24000008840000012400000CA3F000075
:1046100070B56F4E2DED040B2DED048B82B0DDF8DF
:1046200024C0DDE907235C422CF000411C4341EA31
:10463000D474069D22F00040B44205D86C422C434D
:1046400040EAD474B4420BD99DED081B9DED060BD6
:1046500002B0BDEC048B04B0BDE8704001F0DEB8E0
:10466000ACF14054A4F17F641C430BD0022404EA53
:10467000AC7444EAD27405439FED578B9FED582BE1
:1046800007D015E09DED060B51EC100B02F0D1FCAC
:1046900042E0002C11BF012C9DED060B02B0BDECD9
:1046A000048B04BF04B070BD022C38D0032C3BD067
:1046B0000B439FED4D1B9FED4E0B0AD0B14218D11D
:1046C000B04209D121F0804120F08040099107904B
:1046D0000FE0002A15DA10E0474B7B44002C08BF9E
:1046E00093ED000B0DD0012C10D0022C17D0032C11
:1046F0001AD0B0421DD1002A03DAB0EE410AF0EE22
:10470000610A02B0BDEC048B04B070BD93ED000BE8
:1047100051EC100B81F0004141EC100BF1E7B0EED1
:10472000480AF0EE680AECE7B0EE420AF0EE620AE0
:10473000E7E7401A00159FED329B3C28C8BF8DED7E
:10474000000B17DCBCF1000FBCBF10F13C0F8DED6E
:10475000009B0FDB9DED080B53EC102B9DED060B22
:1047600051EC100BFBF7F6FE02F080FC02F061FC4E
:10477000CDE90001B4B1012C10D0022C9FED220B29
:1047800053EC102B9DED000B51EC100B19D0FBF7E7
:1047900069FE53EC182BFBF765FEBDE7019880F02E
:1047A000004001909DED000B53EC192B51EC100BC8
:1047B000FBF78AFF04BF022001F08EF89DED000B8D
:1047C0009FE7FBF74FFE53EC182BFBF74EFEA3E7DA
:1047D0000000F07F00000000182D4454FB21094028
:1047E000182D4454FB2109C0182D4454FB21F9BF56
:1047F000182D4454FB21F93FB23F00000000000097
:104800000000000000000000075C143326A6A13C55
:1048100010B510EE104A4FF019406849002200EB25
:1048200044002DED028B884257D8DFED650A14F065
:10483000004F60EE200A14BFBEEE001AB6EE001A5A
:1048400071EE200AFDEEE00A10EE900A00EE900AEA
:10485000F8EEE00A9FED5B1A00EEC10A9FED5A1ACE
:1048600000EEC10ADFED590A9FED591A00EE201A39
:10487000DFED580A40EE010A9FED571A574B00F042
:10488000030100EE201A21EE000A7B4403EB8103B2
:10489000D3ED000A524B7B4403EB810393ED001AE6
:1048A000504B41EE000A7B4403EB8101801091EDF7
:1048B000000A70EE800AEABB00EE100AB8EEC01AD9
:1048C000DFED491A9FED490ABDEC028B01EE210A8A
:1048D000BCEEC00A20EE200A10BD4FF0FF40A043FE
:1048E0001BD04FF0CE40B0EB440F82BFB7EE000AB2
:1048F000BDEC028B10BD3E48B0EB440F28BF012237
:1049000093D2022000F0E8FF14F0004F15D0BDEC68
:10491000028BBDE8104000F0C7BF14F5000F02BFC6
:104920009FED340ABDEC028B10BDBDEC028BBDE8DF
:10493000104000E007E000F0ABBFBDEC028BBDE82B
:10494000104000F0A9BF00EBD07359104FF07E5219
:1049500002EBC15100EE101AA0EB630002EBC05055
:1049600060EE200A00EE100A20EE208A18EE100AEF
:1049700088B118EE100AB0F1FF4F15D018EE100AEA
:10498000FFF738FC042808BF00F08EFFB0EE480A9D
:10499000BDEC028B10BD022000F09EFFBDEC028B2F
:1049A000BDE8104000F080BF022000F095FFBDEC94
:1049B000028BBDE8104000F06FBF00000000501EE9
:1049C0003BAAB8400070313EF4FD053712BB2A3DCA
:1049D00012BB2A3EFFFFFF3EFFFF7F3F5A3D000014
:1049E0005E3D00002E3D00000000004B00007E4EAA
:1049F0000000A085000000002DED020B019820F0C2
:104A0000004001909DED000B02B0704700000000D7
:104A10002DE9F04D2DED040B2DED0E8B96B0DDE95B
:104A20002550279CDDF890A025F0004624F0004892
:104A3000BAF1000F14BF0121002101EB4502FC492E
:104A400053184A1093422AD3002814BF012300238D
:104A500003EB44030B44F7498B4220D358EA00018F
:104A60009FEDF59B76D0DFF8D8B35D4503D1BAF161
:104A7000000F05D188E0BAF1000F08BF002100D077
:104A8000012101EB450111F5001F08D8002814BFD2
:104A90000121002101EB440111F5001F0BD99DED0F
:104AA000261B9DED240B16B0BDEC0E8B04B0BDE8AB
:104AB000F04D00F0B3BE0027002DBCBFE149884592
:104AC00021DAE1498845A8BF02271CDAC3451ADC70
:104AD000DE4901EB2851142908DDC1F1340220FA26
:104AE00002F101FA02F282420DD108E058B9C1F197
:104AF000140228FA02F101FA02F2424503D101F050
:104B00000101C1F1020756EA0A0124D1002C22DA80
:104B1000002D18BF022F01D0012F0AD0022000F073
:104B2000DBFE16B0BDEC0E8B04B0BDE8F04D00F01E
:104B300053BE022000F0D0FE00F04EFE51EC100BF0
:104B400081F0004141EC100B16B0BDEC0E8B04B0AF
:104B5000BDE8F08D18E09FEDBEAB9FEDBF8B002848
:104B600071D1B848804522D105F1804010F5801000
:104B700008BFBAF1000F07D0B3450ADC002CA8BF6C
:104B80009DED260BE0DA0DE0B0EE490AF0EE690A81
:104B9000DAE7002C06DA9DED260B51EC100B81F0C4
:104BA00000416FE0AE48784490ED000BCCE7D8456B
:104BB0004DD1002C48DA2EB186423AD1BAF1000F1D
:104BC00042D126E0BAF1000F13D0022000F084FE9B
:104BD00000F03EFE8DED020B9DED240B8DED000BE4
:104BE00010EE900A039961F31E0003909DED020BF5
:104BF000AAE78DED02AB9DED240B1AEE901A10EE94
:104C0000900A8DED000B61F31E0003909DED020BE9
:104C10009AE78DED028B9DED240B18EE901A10EEA5
:104C2000900A8DED000B61F31E0003909DED020BC9
:104C30008AE709DA9DED240B51EC190B53EC102B8C
:104C4000FBF788FC1EE020E09DED240B7CE786420C
:104C50001BDAB4F1804F0DD0A4F10050B0F1FF5039
:104C600013D1002D11DB9DED240B51EC100B02F044
:104C700097FC07E09DED240B53EC102B51EC100B2F
:104C800000F0C2BC41EC100B5EE79DED240B51EC33
:104C9000100B02F0EBF9BAF1000FCDE90E0142D191
:104CA0009FED710B46B3A6F1E040B0F17F600CD0F0
:104CB0005E4538D1002D00DAA7B3022F0CBF0120CA
:104CC0004FF0FF30FBF7B5FCDCE7002D01DD002CD9
:104CD0000DDA002D01DD002C1FDB002D16DA002C73
:104CE00014DB012F08BF9FED620B3FF42DAFB0EE38
:104CF0004A0AF0EE6A0A27E7022F18BF002D0CD0EF
:104D0000012F0AD1002DFFF61FAF06E0002DB8BF1E
:104D1000002C08DA012F3FF417AFB0EE480AF0EE8E
:104D2000680A11E71BE0012000EBE57050EA07017B
:104D300015D0791EB0EE498AF0EE698A084308BFA3
:104D40009FED4D8B4E480025804570DD4D494E4806
:104D5000884514DDB0420DDB002C19DB2FE001206B
:104D600000F0BAFD16B0BDEC0E8B04B0BDE8F04DFE
:104D700000F05EBDB34502DC002C09DC1FE086427A
:104D800002DA002C1BDA03E05E452BDD002C16DD79
:104D9000022000F0A1FD00F05BFD8DED020B53EC55
:104DA0001A2B51EC180BFBF763FBCDE900010399BB
:104DB000019861F31E0003909DED020BC4E60220F2
:104DC00000F08AFD00F054FD10EE901A18EE900AE3
:104DD0008DED020B8DED008B61F31E0003909DEDB8
:104DE000020BB1E69DED0E0B53EC192B51EC100BA1
:104DF000FBF738FB9FED260BCDE9080153EC102B98
:104E00009DED080B51EC100BFBF732FB9FED221BC5
:104E100053EC112BFBF729FB9DED081B53EC112BD9
:104E2000FBF726FB9FED1E1B53EC112B3CE08CE0A7
:104E3000FFFF1F00FFFF0F00000000000000F03F19
:104E40000000F03F0000F07F0000404301FCFFFF46
:104E5000000000000000F07F0000000000000000E3
:104E6000E63A0000000000000000000000000080A2
:104E7000000000000000F0FF000000000000F0BF94
:104E80000000E0410000F043FFFFEF3F00000000A2
:104E9000000000000000D03F555555555555D53FF1
:104EA000000000000000E03FFBF7DFFA9DED080B7B
:104EB00041EC1A0B53EC102B51EC100BFBF7D8FA0A
:104EC00053EC1A2BFBF7D4FA41EC1A0B9FEDFE0BB7
:104ED00053EC102B9DED080B51EC100BFBF7C8FAAF
:104EE00041EC1B0B9FEDFA0B51EC1A0B53EC102B02
:104EF000FBF7BEFA41EC1A0B9FEDF70B53EC102BAE
:104F00009DED080B51EC100BFBF7B2FA53EC1A2B8A
:104F1000FBF7A8FA41EC1A0B51EC1B0B53EC1A2BC4
:104F2000FBF7FFF90690CDE906519DED060B53EC1A
:104F30001B2B51EC100BFBF795FA53EC1A2BFBF7DC
:104F400094FA41EC100B00F0A1B90020B6F5801FD7
:104F50000EDA9FEDE30B53EC102B9DED0E0B51EC95
:104F6000100BFBF785FACDE90E016FF034000E4609
:104F700000EB2650A0F2FF37C6F31300DA4940F0E9
:104F80007F6646F040568842D8BF002408DDD749E6
:104F90008142C8BF012403DC0024A6F580167F1CD3
:104FA000D348784400EBC4000F9690ED00CB9DED04
:104FB0000E0B53EC1C2B51EC100BFBF753FA9DED31
:104FC0000E0B41EC1B0B53EC1C2B51EC100BFBF7A5
:104FD000A8F941EC100B51EC190B53EC102BFBF71B
:104FE000B9FA41EC1D0B51EC1B0B53EC1D2BFBF7DD
:104FF0003FFA41EC1A0BBF488DED10AB7844109589
:1050000090ED000B4FF0005040EA660000EB84404A
:105010008DED080B00F5002009909DED080B53EC79
:105020001C2B51EC100BFBF71DFA9DED0E1B53ECE6
:10503000112BFBF71AFA41EC100B53EC102B9DEDE2
:10504000100B51EC100BFBF713FA9DED080B41EC24
:105050001C0B53EC102B9DED100B51EC100BFBF7C0
:1050600007FA53EC1B2BFBF700FA53EC1C2BFBF756
:10507000F9F953EC1D2BFBF7FBF941EC1C0B53EC3E
:105080001A2B51EC1A0BFBF7F3F941EC1B0B9A4866
:105090000621B0EE4B0AF0EE6B0A784400F01DFBDF
:1050A000B0EE401AF0EE601AB0EE41DAF0EE61DADE
:1050B00053EC1B2B51EC1B0BFBF7DAF953EC1D2BBC
:1050C000FBF7D6F99DED100B41EC1B0B53EC1A2BA3
:1050D00051EC100BFBF725F953EC1C2BFBF7C8F92F
:1050E00053EC1B2BFBF71DF99DED100B41EC1B0B3B
:1050F00053EC102B51EC100BFBF7BAF941EC1D0BE4
:105100009FED7FEB53EC1E2BFBF70BF953EC1B2BA6
:10511000FBF707F90890CDE908519DED080B53EC1A
:105120001E2B51EC100BFBF79DF953EC1D2BFBF7DD
:1051300099F953EC1B2BFBF798F99DED080B41EC0B
:105140001D0B53EC102B9DED100B51EC100BFBF7CE
:105150008FF941EC1B0B53EC1A2B51EC1D0BFBF799
:1051600087F99DED080B41EC1A0B53EC102B51EC19
:105170001C0BFBF77DF953EC1A2BFBF7D2F841EC33
:105180001A0B51EC1B0B53EC1A2BFBF7CAF80C90C3
:10519000CDE90C519DED0C0B53EC1B2B51EC100B7E
:1051A000FBF760F953EC1A2BFBF75FF941EC1B0B93
:1051B0009FED550B53EC102B9DED0C0B51EC100B90
:1051C000FBF756F941EC1A0B9FED510B51EC1B0B01
:1051D00053EC102BFBF74CF941EC1B0B9FED4E0BE6
:1051E00053EC102B9DED0C0B51EC100BFBF740F921
:1051F00053EC1B2BFBF795F841EC100B4848784417
:1052000000EBC40090ED001B51EC100B53EC112B84
:10521000FBF787F841EC1B0B3846FBF70AFACDE9A0
:10522000080153EC1B2B51EC1A0BFBF77AF841ECFD
:10523000100B3C48784400EBC40090ED00CB51ECDF
:10524000100B53EC1C2BFBF76CF89DED081B53EC7B
:10525000112BFBF766F80690CDE906519DED080B82
:1052600053EC102B9DED060B51EC100BFBF7FAF8ED
:1052700053EC1C2BFBF7F6F853EC1A2BFBF7F2F868
:1052800053EC1B2BFBF7F1F841EC100B9DED261BAB
:1052900053EC102B8DED001B00959DED260B51EC72
:1052A000100BFBF7E5F89DED000B41EC1A0B53ECEE
:1052B000102B9DED260B51EC100BFBF7D3F89DED59
:1052C000061B53EC112B2FE0000000604715F73F41
:1052D000FE822B654715F73F44DF5DF80BAE543E69
:1052E00000000000000040438E9803007AB60B00D7
:1052F00062360000903600009A3500000000000081
:105300000000000000000840000000E009C7EE3F78
:10531000FD033ADC09C7EE3FF5015B14E02F3EBE0A
:1053200026340000E0330000FBF7A2F853EC1A2B00
:10533000FAF7F7FF9DED060B41EC1A0B53EC102B1F
:105340009DED000B51EC100BFBF792F8CDE90C0131
:105350009DED0C0B51EC1A0B53EC102BFAF7E1FFFF
:10536000CDE902010C46AA498C422FDB611A0843A1
:1053700018D19DED0C0B53EC102B9DED020B51EC55
:10538000100BFBF76FF841EC1B0B9FEDA30B51ECDF
:105390001A0B53EC102BFAF7C4FF53EC1B2BFBF743
:1053A000ABF92DD2022000F097FA00F051FA10EE7E
:1053B000901A18EE900A8DED020B8DED008B61F3C3
:1053C0001E0003909DED020BFFF7BEBB944A24F034
:1053D0000041914214D39349214408437FF4EFAC38
:1053E0009DED0C0B53EC102B9DED020B51EC100BB3
:1053F000FBF738F853EC1A2BFBF77EF97FF6DFAC9E
:1054000024F000408849894A002601EB205182425D
:105410002BDA481C4FF4801121FA00F02044844A12
:10542000C0F30A517A44A1F2FF3192ED000B814A98
:105430008DED080BCA4020EA0202C0F3130040F4CD
:105440008010C1F1140120FA01F60992002CB8BFB6
:1054500076429DED080B53EC102B9DED0C0B51EC9F
:10546000100BFAF7FFFFCDE90C019DED0C0B51EC91
:105470001A0B53EC102BFAF754FF9FED6F0B0890AB
:10548000CDE9085153EC102B9DED080B51EC100B9E
:10549000FAF7EEFF41EC1B0B9FED690B53EC102B61
:1054A0009DED080B51EC100BFAF7E2FF9DED0C0B94
:1054B00041EC1C0B53EC102B9DED080B51EC100B29
:1054C000FAF7D0FF53EC1A2BFAF7CFFF9FED5E1BD4
:1054D00053EC112BFAF7CCFF53EC1C2BFAF721FFFE
:1054E00041EC1A0B51EC1B0B53EC1A2BFAF719FF7A
:1054F000CDE902019DED020B53EC1B2B51EC100B7F
:10550000FAF7B0FF53EC1A2BFAF7AFFF9DED020B41
:1055100041EC1A0B53EC102B51EC100BFAF7A8FFCF
:10552000CDE908014A489DED080B0521784400F0BB
:10553000D4F89DED081B51EC100B53EC112BFAF72E
:1055400097FF9DED021B53EC112BFAF78EFFCDE96F
:1055500006019DED020B53EC1A2B51EC100BFAF7E0
:1055600087FF53EC1A2BFAF7DCFE9FED3B0B41EC67
:105570001A0B53EC102B9DED060B51EC100BFAF7A8
:1055800071FF9DED060B41EC1B0B53EC102B9DEDB9
:10559000020B51EC100BFAF76BFF53EC1B2BFAF7D5
:1055A000D9FF53EC1A2BFAF75DFF9DED021B53EC6C
:1055B000112BFAF757FF53EC192BFAF756FFCDE9E9
:1055C000020101EB065001150029C8BF039015DC4C
:1055D0009DED020B324651EC100BFBF79CF9FEF7E8
:1055E000F1FD042808BF00F043F932469DED020B9F
:1055F00051EC100BFBF78FF9CDE902019DED020B89
:1056000051EC180B53EC102BFAF732FFFFF73ABBB3
:105610000000904000000000FE822B654715973C7B
:1056200000CC904000346F3F01FCFFFF0000E03FE2
:1056300068320000FFFF0F0000000000432EE63F2D
:10564000396CA80C615C20BEEF39FAFE422EE63FB1
:1056500038310000000000000000000000000040A1
:1056600000B52DED048BB0EE409AF0EE609A83B059
:1056700051EC190BFBF766F941EC180B18EE100A08
:1056800018EE901A8DED008B002818BF01200843FA
:1056900020F00040C0F17F6000F1E040C00F14D066
:1056A00019EE101A19EE900A8DED009B002918BF13
:1056B0000121084320F00040C0F17F6000F1E0408C
:1056C000C00F04BF012000F007F9B0EE480A03B094
:1056D000F0EE680ABDEC048B00BD70B504462DEDFC
:1056E000028B4D1E00EBC500B0EE408AF0EE608AE2
:1056F00090ED000B35F0060017D053EC182B51EC51
:10570000100BFAF7B5FE41EC100B6D1E04EBC50053
:1057100090ED001B51EC100B53EC112BFAF701FE2E
:1057200041EC100B35F00600E7D1022D36D0042DE8
:105730001CD0062D1CBFBDEC028B70BD53EC182B8A
:1057400051EC100BFAF794FE94ED0A1B53EC112B5D
:10575000FAF7E7FD53EC182BFAF78AFE94ED081BD5
:1057600053EC112BFAF7DDFD41EC100B53EC182B29
:1057700051EC100BFAF77CFE94ED061B53EC112B49
:10578000FAF7CFFD53EC182BFAF772FE94ED040BE9
:1057900053EC102BFAF7C5FD41EC100B53EC182B12
:1057A00051EC100BFAF764FE94ED021B53EC112B35
:1057B000FAF7B7FD53EC182BFAF75AFE94ED001BDD
:1057C00053EC112BFAF7ADFDBDEC028B41EC100B45
:1057D00070BD0000000000009FED070B10B553ECFA
:1057E000102B9FED070B51EC100BFAF7B3FE41ECB9
:1057F000100B10BD000000000000000000000000C1
:10580000000000000000F03F10B553EC102B51ECED
:10581000100BFAF786FD41EC100B10BD10B553ECE0
:10582000112B51EC100BFAF77CFD41EC100B10BD65
:105830009FED050B10B553EC102B51EC100BFAF744
:1058400089FE41EC100B10BD0000000000000000BC
:105850009FED050B10B553EC102B51EC100BFAF724
:1058600007FE41EC100B10BD0000000000000070AE
:105870009FED050B10B553EC102B51EC100BFAF704
:10588000F7FD41EC100B10BD0000000000000010FF
:1058900030EE000A704700009FED020A20EE000A79
:1058A00070470000000000709FED020A20EE000A21
:1058B000704700000000001002E008C8121F08C175
:1058C000002AFAD170477047002001E001C1121F81
:1058D000002AFBD1704700000149086070470000B2
:1058E0004C09002010B54169044688472069A04250
:1058F00000D1002010BD012070472DE9F05F002786
:105900008A4604463E46B94637E0A06806EB4602A2
:105910004168806801EBC20500EBC60BD8F818009F
:10592000006800F083FE28600120A880D8F80C00F1
:105930008089E880D8F80C0000892881D8F80C000C
:105940004068E860D8F81800806828615FEA0B00BA
:1059500009D0C0F80090D8F80010416029B14988FA
:1059600019B1012102E0484603E00021016001B9BC
:1059700000207F1CBFB2761C68610CB1208800E05B
:105980000020B04206D9606820B150F826005FEAD6
:105990000008BAD11FB1A0684068CAF800003846B4
:1059A000BDE8F09F704700002DE9FF5F82B0002145
:1059B000DDE90430020DDDF840B0034318D044F6B1
:1059C0001050A2F2FF3242431514119801281FD043
:1059D000A5EB0B00401C5FEA000A4FF000064E4F9B
:1059E000DFF83891B046504615D5CAF1000413E0EF
:1059F000119801244AA3012801D16FEA0B010298F2
:105A0000119AC0E90031C0E9024206B0BDE8F09F3A
:105A1000CBF10000DFE704460021404A491842EB81
:105A20000450CDE9001012E0E00707D032463B46B3
:105A300040464946FAF71CFD8046894632463B46B9
:105A400010461946FAF714FD06460F466410002C5E
:105A5000EAD1DDE90401DDE90023BAF1000F06DA3D
:105A6000FAF706FD42464B46FAF702FD05E0FAF763
:105A700071FD42464B46FAF76DFD04460E46002284
:105A8000284BFAF739FE03D84FF0FF30014607E004
:105A90000022254B20463146FAF743FCFAF7A3FFD4
:105AA000102409E0002C0ADB0A220023FAF7B2FBDB
:105AB000039B30321A55641E50EA0102F2D1641C75
:105AC000039AC4F111031444119A012A03D001224C
:105AD00008430DD10AE0084304D000204FF0110B19
